:020000040800F2
:100000001004002025010008850100088501000872
:100010008501000885010008850100080000000036
:100020000000000000000000000000008501000842
:100030008501000800000000850100088501000816
:100040008501000885010008850100088501000878
:100050008501000885010008850100088501000868
:100060008501000885010008850100088501000858
:100070008501000885010008850100088501000848
:1000800085010008850100084905000800000000FE
:1000900000000000000000000000000085010008D2
:1000A0008501000885010008850100088501000818
:1000B0008501000885010008850100088501000808
:1000C00085010008850100088501000885010008F8
:1000D00085010008850100088501000885010008E8
:1000E0008501000885010008850100080000000066
:1000F0000000000000000000000000000000000000
:1001000000000000000000000000000000000000EF
:1001100000000000000000008501000885010008C3
:100120005FF808F180B582B000AF114B7B60114BD6
:100130003B6007E03B681A1D3A607A68111D7960E0
:1001400012681A603A680C4B9A42F3D30B480C4978
:100150004FF000028842B8BF40F8042BFFF6FAAF18
:1001600000F014F800F0D0F80837BD4680BD00BF9D
:1001700060050008000000200000002000000020B2
:100180000C00002080B400AFFEE700BF80B500AFD8
:10019000164B164A126842F001021A60134A134BBA
:1001A0005968134B0B405360104A104B1B6823F0E7
:1001B000847323F4803313600C4B0C4A126822F4CE
:1001C00080221A60094B094A526822F4FE025A60E2
:1001D000064B4FF41F029A60044B0022DA6200F0D3
:1001E0000BF8044B4FF000629A6080BD0010024093
:1001F0000000FFF800ED00E080B500AF00F002F86D
:1002000080BD00BF80B483B000AF00237B600023BB
:100210003B60304B2F4A126842F480321A602D4BFB
:100220001B6803F400333B607B6801337B603B68F1
:10023000002B03D17B68B3F5A06FF0D1254B1B6871
:1002400003F40033002B02D001233B6001E00023C4
:100250003B603B68012B37D11E4B1E4A52685A60E7
:100260001C4B1C4A52685A601A4B1A4A52685A6010
:10027000184B184A526822F47C125A60154B154AE2
:10028000526842F498125A60124B124A126842F0B5
:1002900080721A6000BF0F4B1B6803F00073002BC5
:1002A000F9D00C4B0B4A526822F003025A60094BFA
:1002B000084A526842F002025A6000BF054B5B6870
:1002C00003F00C03082BF9D10C37BD465DF8047B15
:1002D000704700BF0010024080B483B000AF0346F7
:1002E000FB71084B97F907205209F97901F01F01BA
:1002F000012000FA01F143F822100C37BD465DF8E9
:10030000047B704700E100E080B500AF874B00221E
:100310001A60874B00221A60864B00221A60864BB7
:100320004FF405729A61854B00221A60844B4FF09E
:1003300022321A60824B4FF022325A607E4B7E4A44
:10034000D26942F00102DA614FF0804364221A85DB
:100350004FF0804302229A854FF080434FF0804255
:10036000128892B242F0010292B21A801220FFF774
:10037000B3FF744B01229A60724B20225A60714B7A
:1003800000221A616F4B0022DA626E4B00221A6360
:100390006B4B0022DA606B4B01225A63694B694A4E
:1003A000926842F001029A6004E0614B1B685A1C9B
:1003B0005F4B1A605E4B1B681D2BF6DD5C4B002209
:1003C0001A60604BDA6C40F634039A4203D9594BF9
:1003D00001221A6072E05B4BDA6C40F633039A42FA
:1003E0008CBF00230123DAB2564BD96C40F60C03C4
:1003F000994294BF00230123DBB21340DBB2002BF0
:100400001CD04FF080431B8A9BB203F00103002BEA
:1004100054D04FF080434FF08042128A92B222F0C3
:10042000010292B21A82414B1B6883F001023F4BDA
:100430001A603E4B1A683F4B1A603FE0414BDA6C42
:1004400040F29E739A4294BF00230123DAB23D4BDF
:10045000D96C40F2C57399428CBF00230123DBB2F3
:100460001340DBB2002B1CD04FF080431B8A9BB2A1
:1004700003F00103002B21D04FF080434FF0804266
:10048000128A92B222F0010292B21A82274B1B68A2
:1004900083F00202254B1A60244B1A68254B1A6020
:1004A0000CE0284BDA6C40F29D739A4203D8214B42
:1004B00002221A6002E01F4B00221A60214B022226
:1004C0005A63204B1F4A926842F001029A6004E08E
:1004D000174B1B685A1C164B1A60154B1B681D2BBB
:1004E000F6DD134B00221A60164BDB6CB3F5026F7E
:1004F00006D9104B1B6843F004020E4B1A6010E043
:10050000104BDA6C40F2C5739A4206D8094B1B684F
:1005100043F00802074B1A6003E0064B1A68054BCC
:100520001A60074B034A1268DA6034E708000020BB
:1005300000000020040000200010024000080140DC
:10054000001001400024014080B400AF034B0022A2
:100550001A60BD465DF8047B704700BF002401406F
:0400000508000000EF
:00000001FF
